:100000000C945A000C9479000C9479000C947900AB
:100010000C9479000C9479000C9479000C9479007C
:100020000C9479000C9479000C9479000C9479006C
:100030000C9479000C94F7000C9479000C947900DE
:100040000C9479000C9479000C9479000C9479004C
:100050000C9479000C9479000C9479000C9479003C
:100060000C9479000C9479000C9479000C9479002C
:100070000C9479000C9479000C9479000C9479001C
:100080000C9479000C9479000C9479009C01A301E4
:10009000E001E701EE01F501FC0103020A02110291
:1000A0003E021404410261027B029002F002B60398
:1000B0005903140411241FBECFEFD0E4DEBFCDBF1F
:1000C00011E0A0E0B1E0E0EEF8E000E00BBF02C01C
:1000D00007900D92A831B107D9F721E0A8E1B1E06E
:1000E00001C01D92A332B207E1F70E942D040C94C7
:1000F0006E040C940000CF93DF9300D000D0CDB7F6
:10010000DEB769837A838B839C8389819A81AB81F3
:10011000BC818093000190930101A0930201B093F0
:1001200003018091000190910101A0910201B09121
:1001300003018093190190931A01A0931B01B093BE
:100140001C0100000F900F900F900F90DF91CF9146
:100150000895CF93DF93CDB7DEB781E890E02BE031
:10016000FC01208388E890E02DE730E0FC0131833A
:1001700020838FE690E022E0FC01208384E890E079
:10018000FC01118210828091000190910101A091E7
:100190000201B09103018093190190931A01A09379
:1001A0001B01B0931C018FE590E02FE530E0F901D1
:1001B00020812068FC0120830000DF91CF91089509
:1001C000CF93DF93CDB7DEB781E890E0FC011082DA
:1001D0000000DF91CF910895CF93DF93CDB7DEB7C5
:1001E00081E0809318010000DF91CF9108951F9264
:1001F0000F9200905F000F92112400905B000F920D
:100200002F933F934F935F936F937F938F939F931E
:10021000AF93BF93EF93FF93CF93DF93CDB7DEB749
:100220008091190190911A01A0911B01B0911C01BC
:100230000197A109B1098093190190931A01A09324
:100240001B01B0931C018091190190911A01A0919A
:100250001B01B0911C01892B8A2B8B2B91F40E94DE
:10026000EC008091000190910101A0910201B091F8
:1002700003018093190190931A01A0931B01B0937D
:100280001C010000DF91CF91FF91EF91BF91AF91E1
:100290009F918F917F916F915F914F913F912F919E
:1002A0000F9000925B000F9000925F000F901F90E4
:1002B0001895CF93DF9300D01F92CDB7DEB7898317
:1002C0007B836A8389818A3031F48A819B81BC0176
:1002D0008DE00E94590180EC90E0FC018081882F24
:1002E00090E080729927892BB1F386EC90E0298108
:1002F000FC01208380E090E00F900F900F90DF9141
:10030000CF910895CF93DF93CDB7DEB780912001D1
:1003100090912101CC01A0E0B0E040E050E029E064
:1003200030E0841B950B2817390708F48CC08A5BD2
:100330009F4FFC010C94650481E090E090932101B3
:100340008093200185C080912201813049F4109270
:100350001F0185E090E0909321018093200178C0F7
:1003600080912201823051F482E080931F0186E067
:1003700090E090932101809320016AC08091220136
:10038000843051F482E080931F0188E090E09093E4
:100390002101809320015CC080912201883049F4C2
:1003A00010921F0187E090E090932101809320013B
:1003B0004FC082E090E0909321018093200148C0DB
:1003C00083E090E0909321018093200141C084E07C
:1003D00090E090932101809320013AC081E090E069
:1003E000909321018093200133C089E090E09093A5
:1003F0002101809320012CC089E090E0909321019D
:100400008093200125C089E090E0909321018093A2
:1004100020011EC089E090E090932101809320018B
:1004200017C080912201882339F481E090E09093F5
:100430002101809320010CC089E090E0909321017C
:100440008093200105C0109221011092200100002C
:100450008091200190912101CC01A0E0B0E040E02A
:1004600050E029E030E0841B950B2817390708F489
:10047000D9C1805B9F4FFC010C94650410921F0151
:10048000DCC180911F01823011F410921F01809114
:100490001F01882F90E08B5E9E4FFC01808180932E
:1004A0001E0180911F01882F90E08E5E9E4FFC01FF
:1004B000808180931D0180911F018F5F80931F01B8
:1004C000BCC180911F01882F90E08B5E9E4FFC0184
:1004D000808180931E0180911F01882F90E08E5EA5
:1004E0009E4FFC01808180931D0180911F018F5FD1
:1004F00080931F01A2C180911F01882F90E08B5E25
:100500009E4FFC01808180931E0180911F01882FE6
:1005100090E08E5E9E4FFC01808180931D018DC115
:1005200080911F01882F90E08B5E9E4FFC0180819F
:100530008E3FB8F480911F01882F90E020911F0119
:10054000222F30E02B5E3E4FF90120812695206856
:100550008B5E9E4FFC01208380911F018F5F8093F3
:100560001F0180911F01882F90E08B5E9E4FFC0140
:1005700080818E3FB8F480911F01882F90E02091F8
:100580001F01222F30E02B5E3E4FF901208126957E
:1005900020688B5E9E4FFC01208380911F018F5F3E
:1005A00080931F0180911F01882F90E08B5E9E4FEA
:1005B000FC0180818E3F08F039C180911F01882F96
:1005C00090E020911F01222F30E02B5E3E4FF90179
:1005D0002081269520688B5E9E4FFC01208326C1DA
:1005E00080911F01882F90E08B5E9E4FFC018081DF
:1005F000803FD0F080911F01882F90E020911F0153
:10060000222F30E02B5E3E4FF9012081222F30E077
:10061000220F331F21608B5E9E4FFC01208380914F
:100620001F01815080931F0180911F01882F90E04E
:100630008B5E9E4FFC018081803FD0F080911F0136
:10064000882F90E020911F01222F30E02B5E3E4F3B
:10065000F9012081222F30E0220F331F21608B5EB1
:100660009E4FFC01208380911F01815080931F01C8
:1006700080911F01882F90E08B5E9E4FFC0180814E
:10068000803F08F4D5C080911F01882F90E0209111
:100690001F01222F30E02B5E3E4FF9012081222FD7
:1006A00030E0220F331F21608B5E9E4FFC012083C0
:1006B000BFC080911F01882F90E08E5E9E4FFC018D
:1006C00080818031B0F080911F01882F90E02091CF
:1006D0001F01222F30E02E5E3E4FF901208126952A
:1006E0008E5E9E4FFC01208380911F01815080937C
:1006F0001F0180911F01882F90E08E5E9E4FFC01AC
:1007000080818031B0F080911F01882F90E020918E
:100710001F01222F30E02E5E3E4FF90120812695E9
:100720008E5E9E4FFC01208380911F01815080933B
:100730001F0180911F01882F90E08E5E9E4FFC016B
:100740008081803108F476C080911F01882F90E06D
:1007500020911F01222F30E02E5E3E4FF9012081B3
:1007600026958E5E9E4FFC01208364C080911F0100
:10077000882F90E08E5E9E4FFC0180818823B4F02C
:1007800080911F01882F90E020911F01222F30E0DF
:100790002E5E3E4FF9012081220F8E5E9E4FFC019E
:1007A000208380911F018F5F80931F0180911F0123
:1007B000882F90E08E5E9E4FFC0180818823B4F0EC
:1007C00080911F01882F90E020911F01222F30E09F
:1007D0002E5E3E4FF9012081220F8E5E9E4FFC015E
:1007E000208380911F018F5F80931F0180911F01E3
:1007F000882F90E08E5E9E4FFC0180818823E4F07C
:1008000080911F01882F90E020911F01222F30E05E
:100810002E5E3E4FF9012081220F8E5E9E4FFC011D
:1008200020830AC0000009C0000007C0000005C006
:10083000000003C0000001C0000088E290E02091A9
:100840001D01FC0120838BE290E020911E01FC0140
:1008500020830000DF91CF910895CF93DF93CDB730
:10086000DEB781E290E0FC01108282E290E02FEF9F
:10087000FC01208387E290E02FEFFC01208388E2D7
:1008800090E0FC0110828AE290E02FEFFC012083CF
:100890008BE290E0FC01108261E070E080E090E08B
:1008A0000E947B000E94A90080E290E0FC01808110
:1008B0008095809322010E9482010000809118019E
:1008C0008823E1F310921801EFCFEE0FFF1F0024F1
:1008D000001C0BBE0790F691E02D0994F894FFCF11
:1008E00001000000000000020000000059010000AB
:0808F00000003C243CFDFBF775
:00000001FF
