:100000000C9446000C9465000C9465000C946500FB
:100010000C9465000C9465000C9465000C946500CC
:100020000C9465000C9465000C9465000C946500BC
:100030000C9465000C94E3000C9465000C9465002E
:100040000C9465000C9465000C9465000C9465009C
:100050000C9465000C9465000C9465000C9465008C
:100060000C9465000C9465000C9465000C9465007C
:100070000C9465000C9465000C9465000C9465006C
:100080000C9465000C9465000C94650011241FBE4F
:10009000CFEFD0E4DEBFCDBF11E0A0E0B1E0E6E2FB
:1000A000F4E000E00BBF02C007900D92A231B1074F
:1000B000D9F721E0A2E1B1E001C01D92AC31B20755
:1000C000E1F70E94D9010C9411020C940000CF9327
:1000D000DF9300D000D0CDB7DEB769837A838B83FE
:1000E0009C8389819A81AB81BC818093000190932C
:1000F0000101A0930201B09303018091000190914E
:100100000101A0910201B09103018093130190932A
:100110001401A0931501B093160100000F900F90E9
:100120000F900F90DF91CF910895CF93DF93CDB7CC
:10013000DEB781E890E02BE0FC01208388E890E0C6
:100140002DE730E0FC01318320838FE690E022E050
:10015000FC01208384E890E0FC01118210828091F0
:10016000000190910101A0910201B09103018093DF
:10017000130190931401A0931501B09316018FE51C
:1001800090E02FE530E0F90120812068FC01208318
:100190000000DF91CF910895CF93DF93CDB7DEB705
:1001A00081E890E0FC0110820000DF91CF9108957A
:1001B000CF93DF93CDB7DEB781E0809312010000CB
:1001C000DF91CF9108951F920F9200905F000F92E0
:1001D000112400905B000F922F933F934F935F93F6
:1001E0006F937F938F939F93AF93BF93EF93FF93FF
:1001F000CF93DF93CDB7DEB78091130190911401B7
:10020000A0911501B09116010197A109B109809340
:10021000130190931401A0931501B09316018091DE
:10022000130190911401A0911501B0911601892B31
:100230008A2B8B2B91F40E94D80080910001909121
:100240000101A0910201B0910301809313019093E9
:100250001401A0931501B09316010000DF91CF9116
:10026000FF91EF91BF91AF919F918F917F916F918E
:100270005F914F913F912F910F9000925B000F90F3
:1002800000925F000F901F901895CF93DF9300D0DE
:100290001F92CDB7DEB789837B836A8389818A30D9
:1002A00031F48A819B81BC018DE00E94450180EC84
:1002B00090E0FC018081882F90E080729927892B43
:1002C000B1F386EC90E02981FC01208380E090E08E
:1002D0000F900F900F90DF91CF910895CF93DF9300
:1002E000CDB7DEB78091190190911A018130910547
:1002F00081F08130910530F08230910589F00397CB
:10030000B1F01CC081E090E090931A018093190134
:100310001AC082E090E090931A018093190113C0F3
:1003200083E090E090931A01809319010CC081E062
:1003300090E090931A018093190105C010921A0160
:100340001092190100008091190190911A018130D9
:10035000910549F081309105D8F08230910551F036
:10036000039779F016C08DEF809318018CE380938A
:1003700017010FC08BEF8093180184E2809317015F
:1003800008C087EF809318018CE38093170101C0A8
:10039000000088E290E020911701FC0120838BE2AD
:1003A00090E020911801FC0120830000DF91CF91A3
:1003B0000895CF93DF93CDB7DEB781E290E0FC01E3
:1003C000108282E290E02FEFFC01208387E290E030
:1003D0002FEFFC01208388E290E0FC0110828AE28A
:1003E00090E02FEFFC0120838BE290E0FC01108273
:1003F00061E070E080E090E00E9467000E9495005C
:1004000080E290E0FC018081809580931B010E9436
:100410006E010000809112018823E1F31092120115
:06042000EFCFF894FFCFBE
:10042600010000000000000200000000450100007D
:020436000000C4
:00000001FF
