:100000000C9446000C9465000C9465000C946500FB
:100010000C9465000C9465000C9465000C946500CC
:100020000C9465000C9465000C9465000C946500BC
:100030000C9465000C94E3000C9465000C9465002E
:100040000C9465000C9465000C9465000C9465009C
:100050000C9465000C9465000C9465000C9465008C
:100060000C9465000C9465000C9465000C9465007C
:100070000C9465000C9465000C9465000C9465006C
:100080000C9465000C9465000C94650011241FBE4F
:10009000CFEFD0E4DEBFCDBF11E0A0E0B1E0E2EAF7
:1000A000F4E000E00BBF02C007900D92A431B1074D
:1000B000D9F721E0A4E1B1E001C01D92AC31B20753
:1000C000E1F70E9417020C944F020C940000CF93AA
:1000D000DF9300D000D0CDB7DEB769837A838B83FE
:1000E0009C8389819A81AB81BC818093000190932C
:1000F0000101A0930201B09303018091000190914E
:100100000101A0910201B091030180931501909328
:100110001601A0931701B093180100000F900F90E3
:100120000F900F90DF91CF910895CF93DF93CDB7CC
:10013000DEB781E890E02BE0FC01208388E890E0C6
:100140002DE730E0FC01318320838FE690E022E050
:10015000FC01208384E890E0FC01118210828091F0
:10016000000190910101A0910201B09103018093DF
:10017000150190931601A0931701B09318018FE514
:1001800090E02FE530E0F90120812068FC01208318
:100190000000DF91CF910895CF93DF93CDB7DEB705
:1001A00081E890E0FC0110820000DF91CF9108957A
:1001B000CF93DF93CDB7DEB781E0809314010000C9
:1001C000DF91CF9108951F920F9200905F000F92E0
:1001D000112400905B000F922F933F934F935F93F6
:1001E0006F937F938F939F93AF93BF93EF93FF93FF
:1001F000CF93DF93CDB7DEB78091150190911601B3
:10020000A0911701B09118010197A109B10980933C
:10021000150190931601A0931701B09318018091D6
:10022000150190911601A0911701B0911801892B29
:100230008A2B8B2B91F40E94D80080910001909121
:100240000101A0910201B0910301809315019093E7
:100250001601A0931701B09318010000DF91CF9110
:10026000FF91EF91BF91AF919F918F917F916F918E
:100270005F914F913F912F910F9000925B000F90F3
:1002800000925F000F901F901895CF93DF9300D0DE
:100290001F92CDB7DEB789837B836A8389818A30D9
:1002A00031F48A819B81BC018DE00E94450180EC84
:1002B00090E0FC018081882F90E080729927892B43
:1002C000B1F386EC90E02981FC01208380E090E08E
:1002D0000F900F900F90DF91CF910895CF93DF9300
:1002E000CDB7DEB78091190190911A018230910546
:1002F00091F18330910528F4009749F0019771F04E
:100300004AC08330910571F1049799F144C081E0AE
:1003100090E090931A018093190142C080911B01D3
:10032000813039F482E090E090931A0180931901B2
:1003300037C080911B01823039F483E090E09093C4
:100340001A01809319012CC081E090E090931A016A
:100350008093190125C084E090E090931A01809366
:1003600019011EC084E090E090931A018093190156
:1003700017C080911B01882339F481E090E09093AD
:100380001A01809319010CC084E090E090931A0147
:100390008093190105C010921A01109219010000F2
:1003A0008091190190911A018230910571F083308A
:1003B000910528F4009711F1019711F128C08330BD
:1003C000910571F00497F1F022C0809113018E3FE6
:1003D000D8F480911301869580688093130114C02E
:1003E00080911301803F90F080911301882F90E05D
:1003F000880F991F81608093130108C0000007C017
:10040000000005C0000003C0000001C0000088E239
:1004100090E020911201FC0120838BE290E020917A
:100420001301FC0120830000DF91CF910895CF9349
:10043000DF93CDB7DEB781E290E0FC01108282E26B
:1004400090E02FEFFC01208387E290E02FEFFC018A
:10045000208388E290E0FC0110828AE290E02FEF96
:10046000FC0120838BE290E0FC01108262E370E0EB
:1004700080E090E00E9467000E94950080E290E09A
:10048000FC018081809580931B010E946E01000019
:10049000809114018823E1F310921401EFCFF894B6
:0204A000FFCF8C
:1004A2000100000000000002000000004501000001
:0404B2000000FFFE49
:00000001FF
